S011000052542F42415349432056312E30436F
S1130100200EBD170F963D8A80972EBD036F2038B1
S11301108E1C77CE1ED2DF4FDF3ECE1FFEDF40CED9
S11301201D42DF2F6F00089C4026F95FD739D7386E
S1130130D73DD769D76AD72ECE0030DF22CE006BE9
S11301406F00088C008926F8CE1000DF24BD1755F7
S1130150865A9742CE0000DF90DF5DDF3ADF67BD4D
S11301600621CE00EADF59BD171825037E07BCD649
S11301702E270C562509CE0024BD16E7BD0358BD15
S11301800312810D27E1BD057225048601205991D2
S11301903A25062608D13B22048602204B973AD7FB
S11301A03BBD03D7DF31BD0EF9BD030DBD031A25D9
S11301B0022033A601BD031A2505BD02442015BD46
S11301C003EF24225FCE063511270508085C20F8CA
S11301D0EE00AD002412BD0312810D270D08813AF3
S11301E027C28604200286038D077E0167313120F1
S11301F0F936BD03589C31270B8C1D41270A08BDD5
S113020003A320F1865E8D2D8D0CCE0238BD0342F2
S1130210327C005D8D037E0362164FC1632305C0EB
S1130220644C20F78D0D4FC1092305C00A4C20F7FB
S11302308D01178A307E034E2A2A204552524F528E
S1130240200DDE318D652416BD0EF9BD0B10240E74
S113025096282705BD0D952003BD0F23250139964A
S1130260282616962627078D39BD13F7200796559D
S1130270D656BD14F3DF310D394FC627BD15528D47
S1130280079637BD0EB620ED962627022014963722
S113029027069687D68820049655D656BD13D47E55
S11302A013E7BD140ABD13CF7E13D95FD737D72602
S11302B0D7288D5E8D64250486050C39E601C1249A
S11302C026060808D7282003BD10DB8D3927137DA7
S11302D000282705BD130D2003BD13129755D756CB
S11302E00D397C00267D00282605BD111F2003BD85
S11302F0111A24C67E140EDE87DF558611972897BF
S1130300378D0A7E024837E600C1283339DE3120B2
S11303100108A600812027F90D398141251B815B45
S113032022170D39813025118139220D0D39BD0374
S113033012810D27F7813A27F30C39812C26FA080C
S11303400D39A600810D260139088D0220F47E1690
S1130350E1DF318D0DDE31398D048DE68D04CE1C47
S1130360F939BD16ED96394C97398139240139C6CE
S1130370048D29D739C604862D8DD35A26F9BD1686
S1130380EDBD16EDCE03AD8DB996384C9738BD0250
S113039019C60A8D10CE03B18DA8C603BD16ED5A39
S11303A026FA39C60186208DA55A26F939504720E8
S11303B00D412F424153494320312E30430DDF314B
S11303C0CE1D3E080808089C2F26020C39A10026E1
S11303D0F2E10126EE0D398DE524119C3E260586B9
S11303E01F7E10579624D625A702E703DE3139DF96
S11303F031CE0477DF49CE05002025DF31CE052933
S1130400DF49CE05502019DF31CE0551DF49CE0535
S113041071200DBD030DDF31CE04EFDF49CE052879
S1130420DF4B8607973CDE31DF5FDF457A003C26F1
S113043006DE5FDF310C39DE31A600BD031A24F17C
S113044008DF31DE49DF47DE45DF20DE47A6002B2B
S11304501E08DF47DE20A100260508DF2020ECDE91
S113046047A6002B030820F99C4B27C00820D684FC
S11304707FDE20DF310D39454E4480464F52814E98
S11304804558548252454D84474F544F85494686BA
S1130490494E505554875052494E548852455455EC
S11304A0524E894F52478A424153458B4C45548C96
S11304B0535441434B8E53544F508F43414C4C90B3
S11304C044494D91504F4B45924F50549347454E9C
S11304D09454524541449654575249544597524571
S11304E05449985441534B995357495443489A4F4C
S11304F04E8D474F53554283425546249549525198
S11305009B5448454EC0544FC153544550C24F4666
S113051046C34552524F52C44F5652C44E4D49C51C
S11305204E4F5652C6544142C741425383524E44E1
S113053082504F53805045454B84434C4B814C452E
S11305404E8556414C86415343875355425354522A
S1130550885354522485524947485424824C454672
S11305605424814D49442483434852248454524D95
S11305702480BD0324243AC605D73C5FD74DD74E0B
S1130580BD03242429803036DF31CE004D8D23E68F
S113059001A6008D1D8D1BEB01A90030EB00890025
S11305A031BD13D4DE3108A6007A003C26D2964D24
S11305B00D396801690039DF5F3637962E272A84A2
S11305C0022726C602BD03A5CE0024BD16E7CE0031
S11305D089BD16EA3337C101270CC1022605BD16B1
S11305E0EA2003BD16E7BD036233CE00898D0532D0
S11305F0DE5F0D39A60008DF65DE2408DF2437D668
S11306002E2717DE57A70008DF5796904C97908146
S11306101825028D0CDE6708DF67DE65335A26D4A1
S11306203996902703BD16A5CE0093DF57DE24DF4D
S1130630917F00903907BA0B930C1209BF01ED09A1
S1130640C30A75090F086809690B320AEC02420CE7
S11306509A0A2A0A180A2106AC0B1A066D094802DE
S1130660F7090B0864096D098B097407A3DE31C609
S113067001BD032E2534814E27175C81482712586B
S11306808153270D5881492708812C2708861A0C85
S113069039DA3DD73D0820D708A600BD0B0424084D
S11306A04D26035D260486150C390D39BD030D86D0
S11306B05A16BD13127F005EA600BD031A250386D9
S11306C00A39E601C12427087C005EBD10DB200244
S11306D00808BD12E724097D002E260A86130C396A
S11306E0A700E701DF5FDE31A6008128261F7F0017
S11306F08F8DA5241BD78EA600812C260CD65E27B1
S11307000C8D95240BD78FA6008129270486140C01
S11307103908DF31962E262EDE5F968ED68FA704FB
S1130720E7058D3DA702E703BD1346D68E968F27B6
S1130730028D5B8D277D005E26088D208D1E8D1C0D
S11307408D1A8D222415DE31BD032E250EBD033BEB
S11307502406BD03127E06B586100C395849252897
S1130760399622D623393736308DF6EB01A9002588
S1130770179722D723962E260C9669D66AEB01A9E1
S1130780009769D76A0D200386200C31313937C6AA
S11307900837305F58492404EB0189006A0026F4C5
S11307A0313139BD0413240E814326037E15A38100
S11307B00D26037E159F86210C393131BD15AB966C
S11307C02E26037E0102BD0621BD0841CE084C8DB4
S11307D064965DBD02198D69CE085C8D58CE0069A2
S11307E08D58CE08548D4ECE00678D4ECE08448D64
S11307F044DE9109DF5FCE005F8D3F8D44D62EC469
S1130800042723DE3E9C4F271DA6008D1C08A6004E
S11308108D17C603BD03A508BD16E7BD16EABD16B0
S1130820EABD035120DF7EE16A4D2A02862A2602B0
S113083086207E034EBD034220F686248DF4BD1629
S1130840E77E036250474D20454E440D4552524FBA
S11308505253200D50474D204C454E0D56415220C9
S11308604C454E0D860120014F976F4C976BBD0888
S1130870F6C6198D7ABD032E2604C66D2071BD04FB
S1130880132408814727268115275ABD0EF9DF5FF7
S1130890BD0D95240B4D2704C6892021C685201D36
S11308A0DE5FDF31BD0413240D81472609BD0F230C
S11308B02432C63E2007BD0F232429C6968D30BDA1
S11308C0033B2406C6288D2720C1813B260E08BD84
S11308D0032E26B7966F2615C6312013BD03312784
S11308E00486100C39966F2604C66B2002C6454F49
S11308F0DB769975200FDE87DF4DBD030D7E13E790
S11309004FDB789977BD14577E0312C6912002C637
S1130910BB378DE2338DE9C601D76CBD04132404C3
S113092081152722BD02AB241E962826085F8DD090
S1130930BD025F2007BD0288C66B8DC4BD030D8157
S11309402C26030820DE0D39DE31BD0312BD0FC392
S113095024164D2605178D192003BD1426BD031238
S1130960BD033B240220E30D3986392002863BDE99
S1130970317E141486A0C60EBD13D4867CDE31BD30
S113098013E9BD15A3BD15957E159FBD0AF6241F59
S11309904D261CC11024188686BD1426DF31BD04E3
S11309A013240C81432604C62C200C810D270686B3
S11309B00E0C39C62CC63586E3206C86CE200686FE
S11309C0BD2002867E97898D0B2413978AD78BC608
S11309D0037E05B7BD030DBD05722503860A39DF05
S11309E0317D002E2620BD03BE2517BC003E260403
S11309F0860D0C39A700E7016F036F020808080889
S1130A00DF2FDE310D39BD03BE2409A602E603261D
S1130A10F14D26EE86070C39DE3186E1C66A7E1377
S1130A20C9BD0AF62501397E1457868E9789BD0AF9
S1130A30FB24F32096962C2603BD0EA1860CBD0E36
S1130A40B64FC627BD154B4FC6207E15528DE68D79
S1130A507324318D708624C10427054CC1032624D8
S1130A60975EBD0D9524BF860BBD0EB6965EC6037C
S1130A70BD14262036BD030DBD0D9525D0BD0F2117
S1130A808D422503860F398D3CD75E7C00517F0053
S1130A902DBD0F32C601962D2704BD141B5FBD105A
S1130AA0BCCE0AE0D65E5A58BD1366DF31BD0413CE
S1130AB0240E814026037E09C3810326037E09BFD9
S1130AC086040C395FA600813D2604CA04200E81E9
S1130AD03C2604CA022006813E26E7CA01080D39D5
S1130AE0157F15641585156E155D15688D0D24D358
S1130AF09722D7230D39BD030D2009DE318D112432
S1130B000EBD0312BD057225068D3F2502860B39E5
S1130B10BD0312813D267A080D398DDA24F1BD0218
S1130B20DC7F00268DEA24E7BD0F239655D6567E3A
S1130B30153C8DC724D99724D725962E2707DF3156
S1130B40BD0621DE310D39BD030D81242643088DF8
S1130B502A243EC604D73C5FD74DD74E8D1D24159D
S1130B60C60478004E79004D5A26F79A4E974E08DF
S1130B707A003C26E7964DD64E0D39A600803025E6
S1130B80108109230A8007810A2506810F22020D9C
S1130B90390C39BD030DDF31BD10DB250386053962
S1130BA0BD0306260486120C39975BD75CBD02424E
S1130BB024EDBD041324048141270486040C3996D2
S1130BC05BD65C8A80BD0C8B24D57F005EBD04138C
S1130BD024128142260E965BD65CCA80BD0C8B24FF
S1130BE0BE7C005EDF31DE598C00AA2604861E0C12
S1130BF039965B7D005E27028A80A70009D65CE7F0
S1130C0000099624A700099625A70009DF59DE31BB
S1130C100D39BD030DBD10DB2503860539975BD760
S1130C205CDF31DE598C00EA2604860C0C3908A6F8
S1130C3000975608A600975508E60008A600DF5955
S1130C40DE31975E847F915B26E0D15C26DCBD13A8
S1130C50123637BD1502965E8480270E965BD65CED
S1130C60CA80BD1312BD14FC2006C6014FBD14C9B1
S1130C703332BD14F3965BD65C8A80BD1312BD1566
S1130C8008BD15689655D6567E13C9BD13129755DF
S1130C90D7565FD726D7287E0259BD041324037E76
S1130CA00D04BD0F212423864D8D568627C6028D43
S1130CB04B86C6C6FF8D45BD030DBD03EF5F8105A1
S1130CC027095C8103270486040C39D78F7F008EA3
S1130CD086C1D68E5CD78E8D23BD1576968F26045D
S1130CE08D5B2003BD09BB24E1BD030D812C2605CA
S1130CF008DF3120DB968F270686AD5F7E142686BB
S1130D000D7E1414978EBD030DBD03EF24B9810528
S1130D1026B5968E8145260486062005811B260D60
S1130D204F36BD09BB24A386A0337E1552C6248149
S1130D304427055C8146268F17C6038DBF7E09C3F1
S1130D40DF31BD03128122264508DF315F8D2C255A
S1130D50FC4D270586117E10575C8620BD1426960F
S1130D6024D6253736DE318D122405BD141420F720
S1130D70BD14143233BD13D47E13E7A600BD033172
S1130D80270C8122260BA601812227044F080C3947
S1130D9008085C0D398D1D241A962C270E9685D6CD
S1130DA086BD13D4BD13E786020D39962981012728
S1130DB0014F0D39A6008D882563BD031A24F42044
S1130DC005861C7E1057E601C124263A0808BD0397
S1130DD006261137BD0E7D33BD111A24E6BD110957
S1130DE0C6032008BD130DBD13E7C602D729D62CB0
S1130DF02703BD0EA1BD0312812B26B608D62C26CF
S1130E00B3BD0EA120AEDF31DF5FBD041324168114
S1130E10152704DE5F200E9687D6888D84C60120B0
S1130E20CB861D209EBD04072505962926933936B9
S1130E308D54BD0306268A08323681032217BD1558
S1130E40998601BD0EB6BD0DB424D633375D272077
S1130E50BD033B24CC8D2A3337C1032613A600BD22
S1130E60033B24BD8637BD14148D168632BD14147D
S1130E70A600BD1066328B048D3C7E0DF55F7E0F9F
S1130E801A8DFA7E11B5962C2616D6858686BD1443
S1130E9026D68686C6BD14264FC627D72C7E14F3C5
S1130EA039962926048DE320028DDB962926013903
S1130EB04C810426014AC601D76D5FDF31CE0ED5C1
S1130EC01127055C080820F8E601A600DE31DB7A6C
S1130ED099797E145700380000009800A1001D0085
S1130EE07D004E006200BD012D0012010E00C20102
S1130EF03F009C000E00C80031DF31CE1C07DF53D9
S1130F00867136363068006801EE003131A601275B
S1130F1002973EDE315FD72CD729D72DD751D75230
S1130F2039DE318DD48D0B240896522603BD10FA78
S1130F300D398D378D2E812B26088D2B5FBD10FC2E
S1130F4020F2812D27020D39962D364F972D8D17BE
S1130F50962D33D72D4D2705BD141B20DFC601BDAB
S1130F6010BC20D07E0312087C00518D328DF58197
S1130F702A26098D26C602BD10BC20F1812F270127
S1130F8039962D367F002D8D12962D2704C6042008
S1130F9002C603BD10BC32972D20D27C0051088DAF
S1130FA0398DC1812626048606200F8121260486D8
S1130FB007200781252701398608368D1933BD108E
S1130FC0BC20DEDF31A600BD05722509BD0B4A2514
S1130FD004DE31A600397C0051088D88BD031A2433
S1130FE025A601BD031A2408BD03FB24037E11BEFC
S1130FF0A600BD10DBBD03062606BD110524583925
S1131000BD13124F206B8DBB2404860120638128FD
S1131010274D812D2614088DAA240A964DD64E40BC
S113102050820020148D1E7E141B81232627088DD8
S113103092240D964DD64E4353BD13D486012031D0
S11310408D037E13DF7C0051BD0FDABD0F297C00B8
S11310502D7F00513986098E1C77DF317E01D4083B
S1131060BD12D2BD0F3281292704860820E9080D5C
S113107039D651C101230FD652270B7F00527F006E
S11310805136BD140E32DF31DE53A70009D64EE7C8
S11310900009D64DE70009DF53DE310D39DF31DEBB
S11310A0538C1C07271108A600974D08A600974EDD
S11310B008E600DF532002C602DE31393796522695
S11310C0128DDA3736964D368D3032974D32974E33
S11310D03320028DC832BD13582035BD031A240BAA
S11310E0A601BD0324250BC12426020C395FA600EA
S11310F02005A600E60108080D39BD109D7C0052AC
S113110086057E13588D182410967DD67EBD1457FF
S11311104F97514C9752972D0D3937C620200337DE
S1131120C602D73533BD12E7240AA602E6033736D2
S1131130A604260486170C399770A6052622D635F0
S113114037DE31BD12D2BD104533D735C102260575
S1131150BD158D20028D503233D03582007E14C9E6
S113116036DE31088D4F329736A600812C270631A2
S11311703186180C3908D6368D2D7C0051BD0F32BE
S11311804FBD10BCBD158DD6364FCB0189005849D3
S113119040508200DF3130EB01A9003131DE31BD36
S11311A014C9A6007E10668686976EBD1426967BAB
S11311B0D67C7E1457BD12D2BD0F327E104B4D2605
S11311C00E4FC626BD13D4BD12D2BD1543202E81A9
S11311D00126094FC605BD13D47E10718102263045
S11311E09772BD0306260ABD10458D1BBD13F7205B
S11311F005BD12D28D11967FD680BD14574F9751DD
S11312004C972D97520D39865216BD13127E13E753
S113121081032617BD0306270586197E1057BD10C6
S113122045862AC604BD14267E141B81042618BDD7
S1131230030626E508BD0312BD0FC324DC36A60051
S1131240BD1066327E11C436BD12D2D62C372708A3
S1131250BD15998601BD0EB6A600BD030626BA08C3
S1131260BD0DB424B4962C2603BD0EA133323637FB
S11312708108260DA600BD033B249EBD0A35BD0D85
S1131280B4A600BD106633375D2707860FBD0EB6C2
S11312902003BD0D9933323781052604860A201BAD
S11312A081062604860D20138107260D86E65FBD80
S11312B01426864FBD141420058610BD0EB6335D6A
S11312C02707860EBD0EB620054F972C9729860159
S11312D0200F96522708BD140E8602BD10864F9724
S11312E0519752972D0D39DF31DE3E20060808084C
S11312F00808089C4F26020C39A10026F0E10126BB
S1131300EC0D3937C681200D37C6FF200837C620BB
S1131310200337C602D735338DCD2406A602E60353
S1131320201CA700E7019622D623A702E7036F0437
S11313306F058D1237364FD635BD07663233974D5C
S1131340D74EDE310D399C402605860D7E10570898
S11313500808080808DF4F39DF61489743489B4372
S1131360581B16CE137BDF434FDB4499433736308B
S1131370EE00EE003131AD00DE613914FC14CC1402
S11313809C150814D214A2147D1474146E144D14F4
S113139034142E1465145E1439150213B115951402
S11313A0E114B7148A14E714BD149014ED14C31493
S11313B096D64D2606864F8D5B200486868D6786DD
S11313C0C6D64E2661865F204B8D09867E201A86FE
S11313D0EE5F2052974DD74E3986318D37203586B2
S11313E0438D318653202D86CE9789964D978A96C4
S11313F04E978BC603202186A7C6E7200486A6C67F
S1131400E6375F8D2132C601201C863020068637E0
S11314108D0286369789C6017E05B786408DF5868E
S1131420508DF186825F9789D78AC60220EA8DDAC9
S11314308D1D20A58DD8BD13B18DD38DCD86A6C6A7
S1131440028DE386E6C6038DDD8DE5208C8D9886BE
S11314500197739681D682BD13D486BD208B8DAE41
S1131460BD13B120C98DA7BD13E78D9120C08D9AFE
S11314708D0E20BE8D98BD13B18D8F20F3BD13E763
S1131480860197749683D68420CD86E4C6A420165C
S113149086EAC6AA201086E8C6A8200A86EBC6A952
S11314A0200486E0C6A23736BD140A32C6018D2E4A
S11314B0325F8D2A7E143286C4C684201986CAC639
S11314C08A201386C8C688200DBD13D486CBC6894E
S11314D0200486C0C68237D64E8D0332D64D7E1484
S11314E02686F4C6B4202786FAC6BA202186F8C612
S11314F0B8201BBD13D486F7C6B7201286FBC6B925
S1131500200C86F6C6B6200686F0C6B2200037D672
S11315104D2610D64E5C270B8D0332D64E84DF7ECB
S11315201426377C004E26037C004D8D0C7D004E26
S113153026037A004D7A004E327E13E9BD13D48619
S1131540F7201486F68D10864F2031BD13D486FE05
S11315502005BD13D486FFD64D26DE20BE862DC6BB
S1131560037E1426862C20F7862DC6058DF3862649
S1131570C6068DED8D04862620E5865D7E141486D0
S11315802DC6088DDC8DEF8DF1862720D286588DEF
S1131590EB864920E7863F20E386348DDF20DD8615
S11315A00E20D986018DD5860F20D1BD1693966C59
S11315B09A6B272DDE22DF878649C64FBD1303961B
S11315C06C270FDE24DF77CE184DC6FF8D42C60E82
S11315D08D3E966B270BDE24DF75CE1760C6ED8D2E
S11315E02F9674270BDE24DF83CE195AC6748D2000
S11315F09673270BDE24DF81CE19CEC6768D119625
S11316006E2710DE24DF7BCE078EC6158D022003E5
S11316107E05F49672270BDE24DF7FCE1A44C61AA9
S11316208DEE966D2736DE22DF858653C654BD13B4
S113163008DE24DF79CE1A5EC6FF8DD4C6618DD054
S1131640962E3684FD972E9677D678BD13C9967557
S1131650D676CB968900BD13C932972E967027246F
S1131660DE24DF7D962E3684FD972E865A16BD1312
S1131670123736BD14F63233BD154BBD13FDBD090B
S11316806932972E8D14BD062186538D5486398D6B
S11316905020718D058D5CD74239962E270484081D
S11316A027023131398DF38D4A86538D3486318D3D
S11316B030CE0090E60037CB03E7005F8D208D1E0F
S11316C08D1C8D1A324A27033620F75337308D0E7E
S11316D031860D8D0C860A8D0896422627397EE0C8
S11316E0EA7EE3A67EE3507EE0C87EE0CA7EE14166
S11316F07EE07E8612C63C8D0FD64227064F8DE1D2
S11317005A26FA398614C6348DD7F7800701398DE5
S1131710DCCE175A8DDA20CCC6488D2737DEF3A6E7
S11317200026048D2520F608DFF333811A26020CE7
S113173039DE31A70008DF31810D27075A26DD86FF
S11317400DA700CE1CF9DF310D398D03BD18DECE97
S11317501C78DFF3398DF86F00395041535332044C
S11317608620DF20DE22A7009626818022024C08F4
S11317706F009726DF22DE2039DF242004860197BC
S113178026DE24DF22398DD896268407810126F6A9
S1131790398DEEA600270B8D2F0820F78DC2D12698
S11317A022FA3920BD8612C63C8D16C65A4F8D18B2
S11317B05A26FA86028D118DD886038D0B8614C69F
S11317C034F780078D0201397EE3A68DC48DAE7E89
S11317D0E14136A60026046D0127068A308D836C0C
S11317E0016F003239C6202002C680A60027068D6C
S11317F0B2085A26F6394D2A0A36862D8DA532406E
S11318005082003434306F006F01C01082272504E9
S11318106C0020F6CB1089278DB8C0E8820325041C
S11318206C0020F6CBE889038DA8C06482002504EF
S11318306C0020F6CB648D9AC00A25046C0020F855
S1131840CB0A8D8EE7006C018D883131394F3636E5
S11318503636860536308D6F812027FA812D260E87
S11318606C048D632436812027326D00274180303B
S1131870253D81092239A701A602E6035849A7029A
S1131880E703584958492527EB03A9022521EB0111
S11318908900251BA702E7036A0020C632810527B9
S11318A00F3132336D04270440508200310C39313A
S11318B0313131314F5F0D39C6208D0B2406A7001D
S11318C0085A26F66F0039DF20DE22A60027098198
S11318D02C27048D020D3908DF22DE200C398611F5
S11318E0C63C8D1DBDE350810226F95FBDE35081E6
S11318F0032708A700085CC18025F16F008613C682
S113190034BDE3A6F7800739863FBDE3A6BDE0CC2E
S1131910DF22DF24C680BDE350810F260C9C2427E0
S11319200C09A600BDE3A620ED811826178D07201B
S11319302A44454C2A0430EE003131BDE07E8D0C42
S1131940DE2420CCA700810D26096F00860197268E
S11319507EE1415D27C0085A20BC3736E601375F77
S1131960A6002A075C3040600082003637C6103774
S113197030A6042A094060058200A7046C014F5F69
S1131980660266032404EB05A90446566602660350
S11319906A0026F04D26115D260EA602E6036601B6
S11319A0242540508200201F660124126303630231
S11319B053436C0326086C022604CB018900972B41
S11319C0D72CE603A6020D313131313131393736A6
S11319D0E601375FA6002A075C30406000820036CB
S11319E0373430E6034D26065D26030D204F6D0483
S11319F02A0A6004600524026A046C0186016D02EF
S1131A002B0B4C680369022B04811126F5A700A651
S1131A1004E6056F046F05E003A2022407EB03A9A3
S1131A20020C20010D69056904640266036A00263C
S1131A30E6A604E6056601240440508200313131F3
S1131A4031313139A60148AB00E60158495849EB18
S1131A5001A900CB198936A700E701445639DE27CE
S1131A60DF29309629A702962AA7033930EE0239D6
S1131A705F6D002704085C20F84F3930EE028DF0CA
S1131A805D276609A600088120265E095A20F1C652
S1131A90808D056F0039C620DF29DE27A60008DF08
S1131AA027DE29A7002704085A26ED3930EE02DF85
S1131AB027378DBC1733273110232E4CDE27200304
S1131AC030EE02DF274D27216D00272E4A27030819
S1131AD020F65D27258D2A2014209530EE025D27FF
S1131AE008A6002704085A20F5DF276F0030EE000F
S1131AF0313131316E00C680200730EE0220EAC653
S1131B0020A6008D084D2712085A26F517DF29DE76
S1131B1027A700270108DF27DE29398DEF4F20EDA5
S1131B20DE276F0020EFC601D72FDF278DAB5D279F
S1131B302AD72CDE208DA2D72BD62CD12B23035FC2
S1131B404F39DE27DF29DE20DF2DDE29A60008DF5E
S1131B5029DE2DA1002608085A26EDD62F4F39DE9E
S1131B602008DF207C002FD62B5A20CBDF27DE2055
S1131B70A600270F08DF20DE27E600270408112728
S1131B80EB0C39DE276D0026F80D39368D24DE275F
S1131B90DF22328D2CDE22DF276F00200ADF298D21
S1131BA011DE29DF228D1736962B9726DE2DDF22B4
S1131BB032399626972B7F0026DE22DF2D39D9DC99
S9030000FC
