S011000052542F456469742056312E3043004B
# pg 1A
S11301004fc632d73197304fc601d7339732d631e5
# pg 2b
# @FIXME:   V         (multiple)
S113049034346D0eb8cf1000bd0f004ec621374f57
S11304A0c62032bd0ecace1081df2730ee003131b6
S11304B0bd0ea07e01474fc601d75b975abd09b751
# @FIXME:    V
S11304C0d65d965cc010822726065d26037E014712
S11304D0bd0a867e04bd4fc601d75b975a8627c6e0
S11304E00fd75f975e7e04ebbd0b5b4f5fd76197c1
#       V   @FIXME:
S11304F0307e050a4fc601076197604fc601d75b7e
S1130500975a8627c60fd75f975ebd0670bd09b799
S1130510D65B965A3736D65F965ECB01890040503B
S1130520820030eb01a90031312d0826035d270339
S11305307e0540d65d965cc01082272c037e05970d
S1130540d6619660c000820026065d26037e057b88
S1130550ce10008610c681d7289727bd0f004fc63e
S11305601abd0f25ce1081df27ce1000bd0e99d6ff
S1130570599658cb018900d7599758d6599658c0df
S113058000820026065d26037e0147ce1000bd0dc5
S11305907fbd0dab7e0147d66596648620bd0e53a4
S11305A0cb468913bd0fce8610c681d7289727bda9
S11305B00f09d6659664db3199308620bd0e53cb86
S11305C0468913bd0fcebd0f09ce1081bd0e7ad75b
S11305D0639762d6679666db639962cb018900c034
S11305E08082002d0826035d2703bd0667ce100018
S11305F08610c681d7289727bd0f00d665966486d6
S113060020bd0e53cb468913bd0fcebd0f09d66551
S11306109664db3199308620bd0e53cb468913bdd9
S11306200fcebd0f094fc60dbd0f25ce1081df279c
S1130630ce1000bd0e99d6679666db639962cb0136
S11306408900d7679766d6599658cb018900d75940
S11306509758d6599658c00382002D0826035d2763
S113066003bd06677e050dce1000bd0d7fbd0dab2d
S11306704f5fd76797664f5fD7599758200100ced1
S1130680067edf27ce1000bd0e9939bd0b5bbd0978
S1130690b7d65d965cc010822726065d26037e01d0
S11306A047d65b965a3736d65f965ecb01890040b3
S11306B050820030eb01a90031312d0826035d275b
S11306C0037e0147bd0a867e068Ebd0bead6599687
S11306D058c00482002c037e0147ce1000bd0ceaf2
S11306E08610c681d72897274fc60dbd0f25bd0f8D
S11306F02ade27df20ce1000bd0f00ce1081bd0ff3
S113070030d7599758d6599658c000820026035db1
S113071027037e07648610c681d72897274fc61af9
S1130720bd0f25bd0f2ade27df20ce1000bd0f0030
S1130730ce1081bd0f30d7599758d6599658c0005e
S1130740820026065d26037e06cace1000bd0d7ffc
S113075020062a454f462a00ce0752bd0defbd0d97
S1130760d17e0147bd0b18d6339632db31993086e2
S113077020bd0e53cb4689133736200100ce077cab
S1130780df2730ee003131bd0ea0d6339632584902
S1130790cb0089133736ce10008610c681d7289730
S11307A027bd0f00ce1081bd0fa730ee003131a759
S11307B000e701d6599658c02182002d0526065d12
S11307C026037e0808d6339632db3199308620bd65
S11307D00e53cb46891337368610c681d728972700
S11307E03434bd0e68ce1000bd0f004fc62137d67d
S11307F0599658c021820032bd0ecace1081df271f
S113080030ee003131bd0ea0d63396328620bd0eb7
S113081053cb46891337368610c681d72897273499
# pg 3a |
S113082034BD0E68CE1000BD0F00D6599658C001D5
S11308308200BD0EE5CE1081DF2730EE003131BDE0
S11308400EA0CE10008610C681D7289727BD0F00B2
S1130850CE1081BD0E7AD0599258D7699768861008
S1130860C681D72897273434BD0E68CE1000BD0F3B
S113087000D6599658CB01890037D669966832BD9F
S11308800ECACE1081Df27CE1000BD0E997E06E081
S11308908610C681D72897273434BD0e68CE100041
S11308A0BD0F004FC603374FC62032BD0ECACE104F
S11308B081DF27CE0036BD0EA04FC601D7659764F1
S11308C0D6319630D76B976AD66596645849CB0073
S11308D08913BD0FCEC000820026065D26037E0963
S11308E032CE00368610C681D7289727BD0F09BDA2
S11308F00F2ADE27DF20D66596648620BD0E53CBF3
S1130900468913BD0FCEBD0F09D6659664DB3199B8
S1130910308620BD0E53CB468913BD0FCEBD0F09C3
S1130920CE1081BD0F30C000820026035D27037EF8
S11309300981D6659664CB018900D7659764D06B2D
S1130940926A2D0526065D26037E08C8CE1000BDDA
S11309500D7FCE00368610C681D7289727BD0F0994
S1130960200D2020204E4F5420464F554E4400CE9B
S11309700962BD0F00CE1081BD0DEFBD0DD17E010A
S113098047bd0a867e0147bd0beace1000bd0d7f30
S1130990d6599658bd0dfc201220204c494e455383
S11309A020415641494c41424c4500ce0999bd0d68
S11309B0EFbd0dd17e01474fc601d76d976c8627d9
S11309C0c610d75d975cd66d966c5849cb008913d9
S11309D0bd0fced76f976ed66f966ec0008200267d
S11309E0065d26037e0a2bd65b965ad06f926e2d37
S11309F00826035d27037e0a2bd66f966ed05b9282
S1130A005a26065d26037e0a69d66f966ed05d92dd
S1130A105c2d0826035d27037e0a2bd66f966ed7be
S1130A205d975cd66d966cd7659764d66d966ccbe6
S1130A30018900d76d976cd66d966c3736d6319692
S1130A4030cb0189004050820030eb01a9003131e4
S1130A5026035d27037e09c6d65d965cc0108227f7
S1130A6026035d27037e0a7939d65b965ad75d97ac
S1130A705cd66d966cd7659764d65d965ccb018920
S1130A8000d75b975a39ce1000bd0d7fd6659664aa
S1130A908620bd0e53cb468913bd0fce8610c6816a
S1130AA0d7289727bd0f09d6659664db3199308620
S1130AB020bd0e53cb468913bd0fcebd0f09ce10fa
S1130AC081bd0defbd0dd1394fc601d7339732d655
S1130AD0319630d7359734d65796563736d633961f
S1130AE0325849CB008913BD0FCE4050820030EB01
S1130AF001A900313126065d26037E0B17d63396f5
S1130B0032cb018900d7339732d03592342d052664
S1130B10065D26037E0Ad7394fc601d7339732d6ee
S1130B20319630D7359734d63396325849cb00892d
S1130B3013bd0fcec000820026065d26037e0B5a2d
S1130B40d6339632cb018900d7339732d0359234dd
S1130B502d0526065d26037e0b273920022c00cea8
S1130B600b5d8610c681d7289727bd0f00bd0f2abd
S1130B70de27df203434bd0e68ce1000bd0f004fd9
S1130B80c603374fc60532bd0ecace1081bd0f3025
S1130B90d77197708610c681d72897273434bd0e35
S1130BA068ce1000bd0f004fc603374fc60432bdd8
# pg 4b
S1130BB00ecace1081bd0fa7d75b975a8610c68187
S1130BC0d72897273434bd0e68ce1000bd0f00d649
S1130BD0719670CB038900374fc60432bd0ecace5e
S1130BE01081bd0fa7d75f975e394f5fd7599758cc
S1130BF04fc601d7339732d6319630d7359734d68e
S1130C003396325849cb008913bd0fcec000820001
S1130C1026065D2603bd0C33d6339632cb018900fc
S1130C20d7339732d03592342d0526065d26037ec0
S1130C300bff39d6599658cb018900d759975839a3
S1130C40ce10008610c681D7289727bd0f00ce107e
S1130C5081bd0e7ad7599758394f363636368605C0
S1130C6036308D6f812027fa812d260e6c048d631a
S1130C702436812027326D0027418030253D8109ab
S1130C802239a701a602e6035849a702e7035849f7
S1130C9058492527eb03a9022521eb018900251bcf
S1130CA0a702e7036a0020c6328105270f313233D9
S1130CB06d04270440508200310c39313131313117
S1130CC04f5f0d39c6208d0b2406a700085a26f65f
S1130CD06f0039df20de22a6002709812c27048d2E
S1130CE0020d3908df22de200c398611c63c8d1d29
S1130CF0bde350810226f95fbde35081032708a7b5
S1130D0000085cc18025f16f008613c634bde3a6Dc
S1130D10f7800739863fbde3a6bde0ccdf22df24a0
S1130D20c680bde350810f260c9c24270c09a60025
S1130D30bde3a620ed811826178d07202a44454cd3
S1130D402a0430ee003131bde07e8d0cde2420cc4f
S1130D50a700810d26096f00860197267ee1415d7b
S1130D6027c0085A20bc8620df20de22a700962652
S1130D70818022024c086f009726df22de2039dfB3
S1130D8024200486019726de24df22398dd8962676
S1130D908407810126F6398dEEa600270B8D2F08d6
S1130DA020f78dc2d12622fa3920bd8612c63c8d89
S1130DB016C65a4f8d185a26fa86028d118dd8867a
S1130DC0038d0b8614c634f780078d0201397ee348
S1130DD0a68dc48dae7ee14136a60026046d0127a2
S1130DE0068a308d836c016f003239c6202002c61a
S1130DF080a60027068db2085a26f6394d2a0a36ef
S1130E00862d8da532405082003434306f006f013e
S1130E10c010822725046c0020f6cb1089278db8da
S1130E20c0E8820325046c0020f6cbe889038da872
S1130E30c064820025046c0020f6cb648d9ac00a3d
S1130E4025046c0020f8cb0a8D8ee7006c018d8898
S1130E5031313937c60837305f58492404eb0189ea
S1130E60006a0026f4313139de27df29309629a7bc
S1130E7002962aa7033930ee02395f6d0027040871
S1130E805c20f84f3930ee028df05d276609a6002c
S1130E908120265f6f005a20f1c6808d056f0039ce
S1130EA0c620Df29de27a60008df27de29a70027c2
S1130EB004085a26ed3930ee02df27378dbc17338c
S1130EC0273110232e4cde27200330ee02df274d7e
S1130ED027216d00272e4a27030820f65d27258d3c
S1130EE02a2014209530ee025d2708a60027040866
S1130EF05a20f5df276f0030ee00313131316e00ba
S1130F00c680200730ee0220eac620a6008d084dd8
S1130F102712085a26f517df29de27a7002701081c
S1130F20DF27DE29398def4f20edde276f0020ef1c
S1130F30c601d72fdf278dab5d272ad72cde208d66
# pg 5A
S1130F40A2D72BD62CD12B23035F4F39DE27DF29E1
S1130F50DE20DF2DDE29A60008DF29DE2DA10026F4
S1130F6008085A26EDD62F4F39DE2008DF207C00F2
S1130F702FD62B5A20CBDF27DE20A600270F08DF31
S1130F8020DE27E6002704081127EB0C39DE276D45
S1130F900026F80D39368D24DE27DF22328D2CDE33
S1130FA022DF276F00200ADF298D11DE29DF228D41
S1130FB01736962B9726DE2DDF2232399626972B6D
S1130FC07F0026DE22DF2D397E0C597E0DF4F713C7
S1130FD001B71300FE1300A600E60139BD031A246D
