S011000052542F456469742056312E3043004B
# pg 1A
S11301004fc632d73197304fc601d7339732d631e5
# pg 2b
# pg 3a
S113082034BD0E68CE1000BD0F00D6599658C001D5
S11308308200BD0EE5CE1081DF2730EE003131BDE0
S11308400EA0CE10008610C681D7289727BD0F00B2
S1130850CE1081BD0E7AD0599258D7699768861008
S1130860C681D72897273434BD0E68CE1000BD0F3B
S113087000D6599658CB01890037D669966832BD9F
S11308800ECACE1081Df27CE1000BD0E997E06E081
S11308908610C681D72897273434BD0e68CE100041
S11308A0BD0F004FC603374FC62032BD0ECACE104F
S11308B081DF27CE0036BD0EA04FC601D7659764F1
S11308C0D6319630D76B976AD66596645849CB0073
S11308D08913BD0FCEC000820026065D26037E0963
S11308E032CE00368610C681D7289727BD0F09BDA2
S11308F00F2ADE27DF20D66596648620BD0E53CBF3
S1130900468913BD0FCEBD0F09D6659664DB3199B8
S1130910308620BD0E53CB468913BD0FCEBD0F09C3
S1130920CE1081BD0F30C000820026035D27037EF8
S11309300981D6659664CB018900D7659764D06B2D
S1130940926A2D0526065D26037E08C8CE1000BDDA
S11309500D7FCE00368610C681D7289727BD0F0994
S1130960200D2020204E4F5420464F554E4400CE9B
S11309700962BD0F00CE1081BD0DEFBD0DD17E010A
S113098047bd0a867e0147bd0beace1000bd0d7f30
S1130990d6599658bd0dfc201220204c494e455383
S11309A020415641494c41424c4500ce0999bd0d68
S11309B0EFbd0dd17e01474fc601d76d976c8627d9
S11309C0c610d75d975cd66d966c5849cb008913d9
S11309D0bd0fced76f976ed66f966ec0008200267d
S11309E0065d26037e0a2bd65b965ad06f926e2d37
S11309F00826035d27037e0a2bd66f966ed05b9282
S1130A005a26065d26037e0a69d66f966ed05d92dd
S1130A105c2d0826035d27037e0a2bd66f966ed7be
S1130A205d975cd66d966cd7659764d66d966ccbe6
S1130A30018900d76d976cd66d966c3736d6319692
S1130A4030cb0189004050820030eb01a9003131e4
S1130A5026035d27037e09c6d65d965cc0108227f7
S1130A6026035d27037e0a7939d65b965ad75d97ac
S1130A705cd66d966cd7659764d65d965ccb018920
S1130A8000d75b975a39ce1000bd0d7fd6659664aa
S1130A908620bd0e53cb468913bd0fce8610c6816a
S1130AA0d7289727bd0f09d6659664db3199308620
S1130AB020bd0e53cb468913bd0fcebd0f09ce10fa
S1130AC081bd0defbd0dd1394fc601d7339732d655
S1130AD0319630d7359734d65796563736d633961f
S1130AE0325849CB008913BD0FCE4050820030EB01
S1130AF001A900313126065d26037E0B17d63396f5
S1130B0032cb018900d7339732d03592342d052664
S1130B10065D26037E0Ad7394fc601d7339732d6ee
S1130B20319630D7359734d63396325849cb00892d
S1130B3013bd0fcec000820026065d26037e0B5a2d
S1130B40d6339632cb018900d7339732d0359234dd
S1130B502d0526065d26037e0b273920022c00cea8
S1130B600b5d8610c681d7289727bd0f00bd0f2abd
S1130B70de27df203434bd0e68ce1000bd0f004fd9
S1130B80c603374fc60532bd0ecace1081bd0f3025
S1130B90d77197708610c681d72897273434bd0e35
S1130BA068ce1000bd0f004fc603374fc60432bdd8
# pg 4b
# pg 5A
S1130F40A2D72BD62CD12B23035F4F39DE27DF29E1
S1130F50DE20DF2DDE29A60008DF29DE2DA10026F4
S1130F6008085A26EDD62F4F39DE2008DF207C00F2
S1130F702FD62B5A20CBDF27DE20A600270F08DF31
S1130F8020DE27E6002704081127EB0C39DE276D45
S1130F900026F80D39368D24DE27DF22328D2CDE33
S1130FA022DF276F00200ADF298D11DE29DF228D41
S1130FB01736962B9726DE2DDF2232399626972B6D
S1130FC07F0026DE22DF2D397E0C597E0DF4F713C7
S1130FD001B71300FE1300A600E60139BD031A246D
#
#;; Keyboard Macro Editor.  Press C-c C-c to finish; press C-x k RET to cancel.
#;; Original keys: C-a C-SPC C-e ESC w ESC |srec_info 3*RET C-x k e
#
#Command: last-kbd-macro
#Key: none
#
#Macro:
#
#C-a			;; move-beginning-of-line
#C-SPC			;; set-mark-command
#C-e			;; move-end-of-line
#ESC			;; ESC-prefix
#w			;; self-insert-command
#ESC			;; ESC-prefix
#|srec_info		;; self-insert-command * 10
#3*RET			;; newline
#